:100000000C9488000C94A5000C94A5000C94A500F9
:100010000C94A5000C94A5000C94A5000C94A500CC
:100020000C94A5000C94A5000C94A5000C94A500BC
:100030000C94A5000C94BB010C94A5000C94A50095
:100040000C94A5000C94A5000C94A5000C94A5009C
:100050000C94A500706F6F6C6C6F6F7000707261A4
:100060007479757368000D0A0D0A00486F73743A4D
:100070002000436F6E6E656374696F6E3A20636C27
:100080006F73650D0A00557365722D4167656E7457
:100090003A20444C41425A0D0A0020485454502FF3
:1000A000312E300D0A00474554202F000D0A004123
:1000B000542B43495053454E443D302C00222C389C
:1000C000300D0A0041542B43495053544152543D82
:1000D000302C22544350222C2200220D0A00222CC4
:1000E000220041542B43574A41503D220041542B9A
:1000F00043574D4F44453D310D0A0041542B434970
:10010000504D55583D310D0A00415445300D0A00FF
:1001100011241FBECFE5D8E0DEBFCDBF10E0A0E6C2
:10012000B0E0E4E1F2E102C005900D92A23BB1071C
:10013000D9F712E0A2EBB0E001C01D92A038B107E0
:10014000E1F70E94FD020C9408090C9400009C0148
:1001500040E050E0CA01B90160587B47814E9F4F93
:10016000F3E0660F771F881F991FFA95D1F7E4E037
:10017000220F331F441F551FEA95D1F70E94D9075C
:10018000215030408FEF8093B3008091B300809373
:10019000B20030BD29B986E880BD88E98AB9789473
:1001A0000895EF92FF920F931F93262F7C0100E09A
:1001B00010E030E040E050E0CA01B90128E438EE38
:1001C00041E050E00E94BA076E0D7F1D801F911F15
:1001D000B3E0660F771F881F991FBA95D1F7A4E087
:1001E000EE0CFF1C001F111FAA95D1F7A801970163
:1001F0000E94FB07215030408FEF8093B300809125
:10020000B3008093B20030BD29B986E880BD88E98B
:100210008AB978941F910F91FF90EF900895809183
:10022000B2008F3F11F4E0E01DC0E091B200FF2763
:10023000E7FDF095EC54FF4FE0819091B200809182
:10024000B300981741F48FEF8093B3008091B3000F
:100250008093B20007C08091B2008F5F8093B2009C
:100260008091B2008E2F08955D9BFECF8CB90895CA
:10027000FC0104C05D9BFECF8CB931968081882340
:10028000C9F7089503C05D9BFECF2CB9FC01019610
:1002900024912223C1F70895EF92FF920F931F93A9
:1002A000CF93DF937C018B01C0E0D0E007C00E94B8
:1002B0000F01F701EC0FFD1F80832196C017D107B6
:1002C000B0F3DF91CF911F910F91FF90EF900895C0
:1002D0008091B2008F3F11F490E01AC09091B2006B
:1002E0008091B300981734F49091B3008091B200DC
:1002F0009F5F0DC09091B2008091B300891714F0F8
:1003000091E006C09091B3008091B200935D981B7C
:10031000892F089502C00E940F010E94680188235E
:10032000D1F708951F93CF93DF93EC01162F0E940E
:1003300068018117E0F3CE01612F70E00E944C014B
:1003400081E0DF91CF911F9108951F93CF93DF93A9
:10035000EC01162F0E946801811738F0CE01612F41
:1003600070E00E944C0181E002C0188280E0DF91C1
:10037000CF911F9108951F920F920FB60F921124E3
:100380002F933F934F938F939F93EF93FF934CB192
:100390008091B3008091B3002091B200992787FD2E
:1003A00090950196332727FD30958217930739F4EE
:1003B0008091B2008F5F8093B2008091B2008091F3
:1003C000B3008091B3008F5F8093B300E091B300DE
:1003D000FF27E7FDF095EC54FF4F40838091B2007A
:1003E0008F3F11F41092B200FF91EF919F918F9186
:1003F0004F913F912F910F900FBE0F901F90189526
:1004000080E090E0FC01EC54FF4F108201968038B0
:100410009105C1F70895662311F0DC9A01C0DC98BC
:10042000DD98A49AA59AA69AA79AAF98AE98AD9887
:10043000AC9887FDAF9A86FDAE9A85FDAD9A84FD96
:10044000AC9ADE9A00C0DE98AF98AE98AD98AC98A2
:1004500083FDAF9A82FDAE9A81FDAD9A80FDAC9A84
:10046000DE9A00C0DE98AC9AAD9AAE9AAF9A089523
:1004700080E097E20197F1F784E090E00197F1F7CF
:10048000DC98DD9AA498A598A698A798DE9A00C053
:100490009C9B02C080E101C080E09D9980629E9992
:1004A00080649F998068DE9800C0DE9A00C09C99A5
:1004B00081609D9982609E9984609F998860DE9892
:1004C00008951F93182F0E943802812F60E00E9428
:1004D0000B021F9108951F93182F0E943802812F3D
:1004E00061E00E940B021F910895662311F4805869
:1004F00001C080540E94610208950E94380290E079
:10050000089581E00E946102089582E00E946102E4
:1005100008951F93182F0E9438021A3049F480342E
:1005200010F080E001C080E480580E94610204C0A5
:10053000812F61E00E940B021F910895CF93DF93FA
:10054000EC0102C00E94890289918823D9F7DF91CA
:10055000CF910895CF93DF93EC0102C00E948902EE
:10056000FE01219684918823C9F7DF91CF910895E8
:10057000CF93DF93EC0102C00E948902FE01219615
:1005800084918823C9F7DF91CF910895D49AD59AA1
:10059000D69AA49AA59AA69AA79A80E09DE7019771
:1005A000F1F7AD9AAC9ADE9A00C0DE9880E097E24F
:1005B0000197F1F7DE9A00C0DE9880E890E0FC0138
:1005C0003197F1F7DE9A00C0DE98FC013197F1F720
:1005D000AC98DE9A00C0DE980197F1F788E20E949D
:1005E000610288E00E9461020E94810286E00E940E
:1005F00061028CE00E9461020895DF93CF93CDB732
:10060000DEB7A8970FB6F894DEBF0FBECDBF0E942D
:10061000C6020E94810280E690E00E949E0280E86D
:1006200095E20E94A70082E090E00E944D050E94A2
:10063000A6078DE590E064E570E00E9406060E9442
:1006400081028FE690E00E949E020E94810289E76B
:1006500090E00E949E028EE790E00E9452060E9467
:1006600081028BEA90E00E949E0280E061E00E949D
:100670007502CE0101960E949E02FFCF0F931F9339
:10068000DF93CF93CDB7DEB727970FB6F894DEBFD1
:100690000FBECDBF8E010F5F1F4FA8012AE030E0D3
:1006A0000E94A808C8010E949E0227960FB6F894DF
:1006B000DEBF0FBECDBFCF91DF911F910F91089587
:1006C0000F931F93DF93CF93CDB7DEB727970FB666
:1006D000F894DEBF0FBECDBF8E010F5F1F4FA80184
:1006E0002AE030E00E94A808C8010E94380127963D
:1006F0000FB6F894DEBF0FBECDBFCF91DF911F9133
:100700000F9108950F931F93DF93CF93CDB7DEB76B
:1007100027970FB6F894DEBF0FBECDBF8E010F5FD7
:100720001F4FB8014AE050E00E948708C8010E94AC
:10073000380127960FB6F894DEBF0FBECDBFCF911C
:10074000DF911F910F9108958230F9F0833018F4F2
:10075000813031F407C0833059F1843009F442C04C
:1007600080E00895693019F41ABA89B308958AB3FC
:1007700021E030E0062E02C0220F331F0A94E2F778
:10078000209528232ABB89B325C0693019F417BAEC
:1007900086B3089587B321E030E0062E02C0220F11
:1007A000331F0A94E2F72095282327BB86B312C093
:1007B000693019F414BA83B3089584B321E030E0AA
:1007C000062E02C0220F331F0A94E2F72095282339
:1007D00024BB83B390E002C0959587956A95E2F7B4
:1007E00081700895693019F411BA80B3089531B356
:1007F00081E090E0062E02C0880F991F0A94E2F76C
:10080000282F2095232321BB22B3822B82BB80B3C8
:1008100090E002C0959587956A95E2F781700895FA
:10082000823009F441C0833020F4813009F0D7C010
:1008300007C0833009F46CC0843009F0D0C09CC07C
:100840006B3521F48FEF8ABB4BBB0895442321F015
:10085000413009F0C4C014C0693021F48FEF8ABB65
:100860001BBA08958AB321E030E002C0220F331F83
:100870006A95E2F7822B8ABB8BB32095282312C09E
:10088000693021F48FEF8ABB8BBB08958AB321E0D6
:1008900030E002C0220F331F6A95E2F7822B8ABB39
:1008A0008BB3282B2BBB08956B3521F48FEF87BBBF
:1008B00048BB0895442321F0413009F090C014C092
:1008C000693021F48FEF87BB18BA089587B321E010
:1008D00030E002C0220F331F6A95E2F7822B87BBFC
:1008E00088B32095282312C0693021F48FEF87BB8D
:1008F00088BB089587B321E030E002C0220F331F88
:100900006A95E2F7822B87BB88B3282B28BB089512
:100910006B3521F48FEF84BB45BB0895442321F050
:10092000413009F05CC014C0693021F48FEF84BB02
:1009300015BA089584B321E030E002C0220F331FBE
:100940006A95E2F7822B84BB85B32095282312C0D9
:10095000693021F48FEF84BB85BB089584B321E017
:1009600030E002C0220F331F6A95E2F7822B84BB6E
:1009700085B3282B25BB08956B3521F48FEF81BB00
:1009800042BB0895442319F0413049F515C0693040
:1009900021F48FEF81BB12BA089581B321E030E0DA
:1009A00002C0220F331F6A95E2F7822B81BB82B30C
:1009B0002095282322BB0895693021F48FEF81BB55
:1009C00082BB089581B321E030E002C0220F331FC3
:1009D0006A95E2F7822B81BB82B3282B22BB089554
:1009E000833019F1843009F43CC0823009F054C0DE
:1009F000442321F0413009F04FC00CC027B381E0FF
:100A000090E002C0880F991F6A95E2F780958223D3
:100A100087BB089527B381E090E002C0880F991F3B
:100A20006A95E2F7282B27BB0895442319F041303B
:100A300099F50CC024B381E090E002C0880F991FA3
:100A40006A95E2F78095822384BB089524B381E000
:100A500090E002C0880F991F6A95E2F7282B24BB0B
:100A60000895442319F04130B9F40CC021B381E05A
:100A700090E002C0880F991F6A95E2F78095822363
:100A800081BB089521B381E090E002C0880F991FD7
:100A90006A95E2F7282B21BB0895882321F481E091
:100AA00067E040E004C0813041F467E041E00E942B
:100AB000100483E062E040E00AC0823059F481E033
:100AC00067E040E00E94100483E062E041E00E94A1
:100AD00010040895833051F481E067E041E00E9402
:100AE000100483E062E041E00E9410040895EF9258
:100AF000FF920F931F93CF93DF93EA010E946D083B
:100B0000009719F420E030E01DC001966FEA70E014
:100B10000E946D087C0183E090E0E80EF91EC70199
:100B200062E270E00E9434088C010E191F09CE01A8
:100B3000B701A8010E945E080C0F1D1FF80110826A
:100B400021E030E0C901DF91CF911F910F91FF901B
:100B5000EF900895DB010D900020E9F71197A61B97
:100B6000B70B4A2F50E00E94460820E030E0892B66
:100B700011F421E030E0C90108950E94160808959B
:100B8000AF92BF92CF92DF92FF920F931F93CF93BA
:100B9000DF936C01FF24C0E0D0E080EAA82E8FE054
:100BA000B82E04C02196C5010197F1F70E94680193
:100BB000892B19F4CC15DD05A8F3CC15DD05C9F09A
:100BC0000F2D10E00E940F01F801E052FE4F8083CC
:100BD0008A3069F482E08F1550F40E948A019801EE
:100BE00021503040F901E052FE4F108204C0F394CE
:100BF000DDCF20E030E0C901DF91CF911F910F914F
:100C0000FF90DF90CF90BF90AF9008950F931F9308
:100C1000CF93DF93EC018B018BEF90E00E944201B8
:100C200084EC99E020E931E0F9013197F1F701977F
:100C3000D9F780ED97E00E94C0058DEE90E00E940C
:100C4000420184EC99E020E931E0F9013197F1F7B4
:100C50000197D9F780ED97E00E94C0050E948A01B4
:100C600082EE90E00E944201CE010E9442018EED90
:100C700090E00E944201C8010E9442018AED90E08A
:100C80000E94420188EC92E30E94C00520E030E01F
:100C9000049711F421E030E0C901DF91CF911F9159
:100CA0000F9108956F927F928F929F92AF92BF9211
:100CB000CF92DF92EF92FF920F931F93DF93CF9328
:100CC000CDB7DEB7C456D0400FB6F894DEBF0FBE26
:100CD000CDBF6C013B010E948A01C6016FE270E04A
:100CE0000E9434085C017C01EC18FD088E010F5F46
:100CF0001F4FC801B601A7010E945E08D8010D90E0
:100D00000020E9F76D010894C108D108C01AD10A82
:100D1000F5013196DF010D900020E9F74D010894AF
:100D2000810891088E1A9F0AE00EF11EF7011082C9
:100D300084EC90E00E944201C8010E9438018DEBD2
:100D400090E00E94420100E010E020EAE22E2FE055
:100D5000F22E05C00F5F1F4FC7010197F1F70E94E8
:100D60000F018334910521F0FDE00C3A1F0791F744
:100D70008CE291E020E931E0F9013197F1F7019738
:100D8000D9F70E948A018FEA90E00E944201C80CC4
:100D9000D91CC601805C9F4F0E9482038CEA90E0C0
:100DA0000E944201CC24DD2400EA1FE006C0089422
:100DB000C11CD11CC8010197F1F70E940F01CE9709
:100DC00029F08CEAC8168DE0D80689F786EA90E00B
:100DD0000E944201C50101960E9438018AE990E013
:100DE0000E94420188EC90E00E94C00586E890E0F5
:100DF0000E94420188EC90E00E94C00582E790E0EA
:100E00000E94420188EC90E00E94C0058BE690E0D1
:100E10000E944201CE0101960E94380186E690E0D0
:100E20000E94420188EC90E00E94C0050E940F01E0
:100E30000A97E1F70E940F018B379105D9F78BE7ED
:100E40008093E00184EF91E020E931E0F9013197EE
:100E5000F1F70197D9F701E010E090EAE92E9FE061
:100E6000F92E06C00894C11CD11CC7010197F1F7E7
:100E70000E946801892B29F4A8EBCA16ABE0DA06B8
:100E800088F3B8EBCB16BBE0DB0629F10E940F011B
:100E9000F801E052FE4F80838D37D1F40E940F019C
:100EA00083349105D9F784EF91E020E931E0F9012D
:100EB0003197F1F70197D9F700521E4FF8011182CF
:100EC000C30160EE71E00E943F080E948A0103C0E6
:100ED0000F5F1F4FCDCF80E090E0CC59DF4F0FB6B2
:100EE000F894DEBF0FBECDBFCF91DF911F910F9160
:100EF000FF90EF90DF90CF90BF90AF909F908F903A
:100F00007F906F90089581E090E062E070E040E0B3
:100F100050E00E94100488E893E120E931E0F901F3
:100F20003197F1F70197D9F781E090E062E070E046
:100F300041E050E00E94100480E49CE920E931E0A7
:100F4000F9013197F1F70197D9F708950E948307C6
:100F500089E091E00E94420188EC90E00E94C00587
:100F6000089581E090E062E070E040E050E00E948F
:100F700010040895629FD001739FF001829FE00DDD
:100F8000F11D649FE00DF11D929FF00D839FF00D08
:100F9000749FF00D659FF00D9927729FB00DE11DB4
:100FA000F91F639FB00DE11DF91FBD01CF01112491
:100FB0000895A1E21A2EAA1BBB1BFD010DC0AA1F9A
:100FC000BB1FEE1FFF1FA217B307E407F50720F0B2
:100FD000A21BB30BE40BF50B661F771F881F991F2D
:100FE0001A9469F760957095809590959B01AC0176
:100FF000BD01CF01089597FB092E05260ED057FDA0
:1010000004D0D7DF0AD0001C38F4509540953095B5
:1010100021953F4F4F4F5F4F0895F6F7909580957C
:10102000709561957F4F8F4F9F4F0895FC018827E2
:101030009927E89421912032E9F3293010F02E30DD
:10104000C8F32B3241F02D3239F4689404C00E9469
:10105000DC08820F911D219120532A30C0F31EF429
:10106000909581959F4F0895FC018191861721F0FD
:101070008823D9F7992708953197CF010895FB0167
:10108000DC0101900D920020E1F70895FB01DC01E5
:101090004150504088F08D9181341CF08B350CF418
:1010A000805E619161341CF06B350CF4605E861BD0
:1010B000611171F3990B0895881BFCCFFB01DC01D2
:1010C0004150504048F001900D920020C9F701C0F6
:1010D0001D9241505040E0F70895FB015191552376
:1010E000A9F0BF01DC014D9145174111E1F759F419
:1010F000CD010190002049F04D9140154111C9F3F7
:10110000FB014111EFCF81E090E001970895FB01D1
:101110009F01E8944230C4F04532B4F44A3029F4D7
:1011200097FB1EF4909581959F4F642F77270E941F
:10113000F408805D8A330CF0895D8193CB010097C0
:10114000A1F716F45DE251931082C9010C94E408F2
:10115000FA01CF93FF93EF93223044F1253234F517
:10116000C22FE894CA3049F497FB3EF490958095DD
:10117000709561957F4F8F4F9F4F2C2F33274427BA
:101180005527FF93EF930E94D907EF91FF91605D80
:101190006A330CF0695D6193B901CA016050704017
:1011A0008040904051F716F4CDE2C19310828F91A8
:1011B0009F91CF910C94E4087AE0979F902D879FA0
:1011C000802D910D11240895DC01FC01672F719190
:1011D0007723E1F7329704C07C916D93708362911D
:1011E000AE17BF07C8F30895AA1BBB1B51E107C088
:1011F000AA1FBB1FA617B70710F0A61BB70B881FA7
:10120000991F5A95A9F780959095BC01CD01089535
:04121000F894FFCF80
:1012140050726F6772616D6D20696E69747A0043F4
:101224006F6E6E6563746564004865726500617015
:10123400692E636C6F626F75732E636F6D2F453605
:10124400343734342F646174612F7570646174654C
:101254003F6B6579313D74657374004E4F570022BE
:021264003A004E
:00000001FF
